{
  "contractName": "TodoList",
  "abi": [
    {
      "inputs": [],
      "payable": false,
      "stateMutability": "nonpayable",
      "type": "constructor"
    },
    {
      "anonymous": false,
      "inputs": [
        {
          "indexed": false,
          "internalType": "uint256",
          "name": "id",
          "type": "uint256"
        },
        {
          "indexed": false,
          "internalType": "string",
          "name": "content",
          "type": "string"
        },
        {
          "indexed": false,
          "internalType": "bool",
          "name": "is_completed",
          "type": "bool"
        }
      ],
      "name": "TaskCreatedEvent",
      "type": "event"
    },
    {
      "constant": true,
      "inputs": [],
      "name": "num_tasks",
      "outputs": [
        {
          "internalType": "uint256",
          "name": "",
          "type": "uint256"
        }
      ],
      "payable": false,
      "stateMutability": "view",
      "type": "function"
    },
    {
      "constant": true,
      "inputs": [
        {
          "internalType": "uint256",
          "name": "",
          "type": "uint256"
        }
      ],
      "name": "tasks",
      "outputs": [
        {
          "internalType": "uint256",
          "name": "id",
          "type": "uint256"
        },
        {
          "internalType": "string",
          "name": "content",
          "type": "string"
        },
        {
          "internalType": "bool",
          "name": "is_completed",
          "type": "bool"
        }
      ],
      "payable": false,
      "stateMutability": "view",
      "type": "function"
    },
    {
      "constant": false,
      "inputs": [
        {
          "internalType": "string",
          "name": "_content",
          "type": "string"
        }
      ],
      "name": "createTask",
      "outputs": [],
      "payable": false,
      "stateMutability": "nonpayable",
      "type": "function"
    },
    {
      "constant": false,
      "inputs": [
        {
          "internalType": "uint256",
          "name": "_index",
          "type": "uint256"
        }
      ],
      "name": "toggleCompleted",
      "outputs": [],
      "payable": false,
      "stateMutability": "nonpayable",
      "type": "function"
    }
  ],
  "bytecode": "0x60806040526000805534801561001457600080fd5b506100596040518060400160405280600d81526020017f56616e6465204d61746172616d0000000000000000000000000000000000000081525061005e60201b60201c565b61024b565b604051806060016040528060005481526020018281526020016001151581525060016000805481526020019081526020016000206000820151816000015560208201518160010190805190602001906100b89291906101a6565b5060408201518160020160006101000a81548160ff02191690831515021790555090505060008081548092919060010191905055507f9ed086b5d4fb9d3a8bf98859b4cda46f2a9b74be2b3a906a94a8e5765f51cb5f600160005403826001604051808481526020018060200183151515158152602001828103825284818151815260200191508051906020019080838360005b8381101561016757808201518184015260208101905061014c565b50505050905090810190601f1680156101945780820380516001836020036101000a031916815260200191505b5094505050505060405180910390a150565b828054600181600116156101000203166002900490600052602060002090601f016020900481019282601f106101e757805160ff1916838001178555610215565b82800160010185558215610215579182015b828111156102145782518255916020019190600101906101f9565b5b5090506102229190610226565b5090565b61024891905b8082111561024457600081600090555060010161022c565b5090565b90565b61050b8061025a6000396000f3fe608060405234801561001057600080fd5b506004361061004c5760003560e01c8063111002aa14610051578063455f50241461010c578063461dd57e1461013a5780638d97767214610158575b600080fd5b61010a6004803603602081101561006757600080fd5b810190808035906020019064010000000081111561008457600080fd5b82018360208201111561009657600080fd5b803590602001918460018302840111640100000000831117156100b857600080fd5b91908080601f016020809104026020016040519081016040528093929190818152602001838380828437600081840152601f19601f820116905080830192505050505050509192919290505050610211565b005b6101386004803603602081101561012257600080fd5b8101908080359060200190929190505050610359565b005b61014261035c565b6040518082815260200191505060405180910390f35b6101846004803603602081101561016e57600080fd5b8101908080359060200190929190505050610362565b604051808481526020018060200183151515158152602001828103825284818151815260200191508051906020019080838360005b838110156101d45780820151818401526020810190506101b9565b50505050905090810190601f1680156102015780820380516001836020036101000a031916815260200191505b5094505050505060405180910390f35b6040518060600160405280600054815260200182815260200160011515815250600160008054815260200190815260200160002060008201518160000155602082015181600101908051906020019061026b929190610431565b5060408201518160020160006101000a81548160ff02191690831515021790555090505060008081548092919060010191905055507f9ed086b5d4fb9d3a8bf98859b4cda46f2a9b74be2b3a906a94a8e5765f51cb5f600160005403826001604051808481526020018060200183151515158152602001828103825284818151815260200191508051906020019080838360005b8381101561031a5780820151818401526020810190506102ff565b50505050905090810190601f1680156103475780820380516001836020036101000a031916815260200191505b5094505050505060405180910390a150565b50565b60005481565b6001602052806000526040600020600091509050806000015490806001018054600181600116156101000203166002900480601f0160208091040260200160405190810160405280929190818152602001828054600181600116156101000203166002900480156104145780601f106103e957610100808354040283529160200191610414565b820191906000526020600020905b8154815290600101906020018083116103f757829003601f168201915b5050505050908060020160009054906101000a900460ff16905083565b828054600181600116156101000203166002900490600052602060002090601f016020900481019282601f1061047257805160ff19168380011785556104a0565b828001600101855582156104a0579182015b8281111561049f578251825591602001919060010190610484565b5b5090506104ad91906104b1565b5090565b6104d391905b808211156104cf5760008160009055506001016104b7565b5090565b9056fea265627a7a72315820eaaaea96b5c69a8d99a0572cf4d3d9046dcbe937a08b6bea106f6908c9419e9264736f6c63430005100032",
  "source": "pragma solidity ^0.5.0;\n\n// Whenever we add/change new functions, we have to 'truffle migrate --reset'. Don't forget :D\ncontract TodoList {\n\tuint public num_tasks = 0;\t// state variable, storage on blockchain\n\n\tstruct Task {\n\t\tuint \tid;\n\t\tstring \tcontent;\n\t\tbool \tis_completed;\n\t}\n\n\tmapping(uint => Task) public tasks;\t// we need to access this like 'await todolist.tasks(1)' ie. we need to pass index inside the parenthesis, as it is dynamically sized...\n\t\t\t\t\t\t\t\t\t\t// Interesting: I tried invalid index (1 more than size), it still returned an object though numbers are 0, strings empty, and bools false\n\n\tevent TaskCreatedEvent(\n\t\tuint id,\n\t\tstring content,\n\t\tbool is_completed\n\t);\n\n\tconstructor() public {\n\t\tcreateTask(\"Vande Mataram\");\n\t}\n\n\tfunction createTask(string memory _content) public { // the underscore naming convention here, is for 'non-state' variables (ie. local variables), just a convention not mandatory\n\n\t\t// Task memory _new_task = Task(num_tasks, _content, true);\t// Data location must be 'storage' or 'memory' for variables \n\t\t// tasks[num_tasks] = _new_task;\n\n\t\ttasks[num_tasks] = Task(num_tasks, _content, true);\n\n\t\tnum_tasks ++;\n\t\t\n\t\temit TaskCreatedEvent(num_tasks-1,_content,true);\n\t}\n\n\tfunction toggleCompleted(uint _index) public {\n\t\t// TODO\n\t}\n}\n",
  "sourcePath": "/home/adityag/projects/ethereum_todo_list/contracts/TodoList.sol",
  "compiler": {
    "name": "solc",
    "version": "0.5.16+commit.9c3226ce.Emscripten.clang"
  },
  "schemaVersion": "3.4.1",
  "updatedAt": "2021-06-10T09:37:38.599Z",
  "networkType": "ethereum",
  "devdoc": {
    "methods": {}
  },
  "userdoc": {
    "methods": {}
  }
}