{
  "contractName": "TodoList",
  "abi": [
    {
      "inputs": [],
      "payable": false,
      "stateMutability": "nonpayable",
      "type": "constructor"
    },
    {
      "constant": true,
      "inputs": [],
      "name": "num_tasks",
      "outputs": [
        {
          "internalType": "uint256",
          "name": "",
          "type": "uint256"
        }
      ],
      "payable": false,
      "stateMutability": "view",
      "type": "function"
    },
    {
      "constant": true,
      "inputs": [
        {
          "internalType": "uint256",
          "name": "",
          "type": "uint256"
        }
      ],
      "name": "tasks",
      "outputs": [
        {
          "internalType": "uint256",
          "name": "id",
          "type": "uint256"
        },
        {
          "internalType": "string",
          "name": "content",
          "type": "string"
        },
        {
          "internalType": "bool",
          "name": "is_completed",
          "type": "bool"
        }
      ],
      "payable": false,
      "stateMutability": "view",
      "type": "function"
    },
    {
      "constant": false,
      "inputs": [
        {
          "internalType": "string",
          "name": "_content",
          "type": "string"
        }
      ],
      "name": "createTask",
      "outputs": [],
      "payable": false,
      "stateMutability": "nonpayable",
      "type": "function"
    }
  ],
  "bytecode": "0x60806040526000805534801561001457600080fd5b506100596040518060400160405280600d81526020017f56616e6465204d61746172616d0000000000000000000000000000000000000081525061005e60201b60201c565b610195565b604051806060016040528060005481526020018281526020016001151581525060016000805481526020019081526020016000206000820151816000015560208201518160010190805190602001906100b89291906100f0565b5060408201518160020160006101000a81548160ff021916908315150217905550905050600080815480929190600101919050555050565b828054600181600116156101000203166002900490600052602060002090601f016020900481019282601f1061013157805160ff191683800117855561015f565b8280016001018555821561015f579182015b8281111561015e578251825591602001919060010190610143565b5b50905061016c9190610170565b5090565b61019291905b8082111561018e576000816000905550600101610176565b5090565b90565b610419806101a46000396000f3fe608060405234801561001057600080fd5b50600436106100415760003560e01c8063111002aa14610046578063461dd57e146101015780638d9776721461011f575b600080fd5b6100ff6004803603602081101561005c57600080fd5b810190808035906020019064010000000081111561007957600080fd5b82018360208201111561008b57600080fd5b803590602001918460018302840111640100000000831117156100ad57600080fd5b91908080601f016020809104026020016040519081016040528093929190818152602001838380828437600081840152601f19601f8201169050808301925050505050505091929192905050506101d8565b005b61010961026a565b6040518082815260200191505060405180910390f35b61014b6004803603602081101561013557600080fd5b8101908080359060200190929190505050610270565b604051808481526020018060200183151515158152602001828103825284818151815260200191508051906020019080838360005b8381101561019b578082015181840152602081019050610180565b50505050905090810190601f1680156101c85780820380516001836020036101000a031916815260200191505b5094505050505060405180910390f35b6040518060600160405280600054815260200182815260200160011515815250600160008054815260200190815260200160002060008201518160000155602082015181600101908051906020019061023292919061033f565b5060408201518160020160006101000a81548160ff021916908315150217905550905050600080815480929190600101919050555050565b60005481565b6001602052806000526040600020600091509050806000015490806001018054600181600116156101000203166002900480601f0160208091040260200160405190810160405280929190818152602001828054600181600116156101000203166002900480156103225780601f106102f757610100808354040283529160200191610322565b820191906000526020600020905b81548152906001019060200180831161030557829003601f168201915b5050505050908060020160009054906101000a900460ff16905083565b828054600181600116156101000203166002900490600052602060002090601f016020900481019282601f1061038057805160ff19168380011785556103ae565b828001600101855582156103ae579182015b828111156103ad578251825591602001919060010190610392565b5b5090506103bb91906103bf565b5090565b6103e191905b808211156103dd5760008160009055506001016103c5565b5090565b9056fea265627a7a72315820c4113c2a5f252f85937965020c83f57261dff4c0ec2c3b7e7b4c6bcb920c0a5a64736f6c63430005100032",
  "source": "pragma solidity ^0.5.0;\n\n// Whenever we add/change new functions, we have to 'truffle migrate --reset'. Don't forget :D\ncontract TodoList {\n    uint public num_tasks = 0;\t// state variable, storage on blockchain\n\n    struct Task {\n\tuint \tid;\n\tstring \tcontent;\n\tbool \tis_completed;\n    }\n\n    mapping(uint => Task) public tasks;\t// we need to access this like 'await todolist.tasks(1)' ie. we need to pass index inside the parenthesis, as it is dynamically sized...\n\t\t\t\t\t// Interesting: I tried invalid index (1 more than size), it still returned an object though numbers are 0, strings empty, and bools false\n\n    constructor() public {\n\tcreateTask(\"Vande Mataram\");\n    }\n\n    function createTask(string memory _content) public { // the underscore naming convention here, is for 'non-state' variables (ie. local variables), just a convention not mandatory\n\n\t// Task memory _new_task = Task(num_tasks, _content, true);\t// Data location must be 'storage' or 'memory' for variables \n\t// tasks[num_tasks] = _new_task;\n\n\ttasks[num_tasks] = Task(num_tasks, _content, true);\n\n\tnum_tasks ++;\n\n    }\n}\n",
  "sourcePath": "/home/adityag/projects/ethereum_todo_list/contracts/TodoList.sol",
  "compiler": {
    "name": "solc",
    "version": "0.5.16+commit.9c3226ce.Emscripten.clang"
  },
  "schemaVersion": "3.4.1",
  "updatedAt": "2021-06-09T08:40:19.747Z",
  "networkType": "ethereum",
  "devdoc": {
    "methods": {}
  },
  "userdoc": {
    "methods": {}
  }
}